:100000000C942A000C942D090C945A090C9487091D
:100010000C9400090C94D3080C9447000C944700EE
:100020000C9447000C9447000C94F4070C94C707F9
:100030000C9447000C9447000C9447000C94470024
:100040000C946E120C9447000C9447000C944700DB
:100050000C94470011241FBECFE5D8E0DEBFCDBF12
:1000600011E0A0E6B0E0E8E8F4E402C005900D92EB
:10007000A639B107D9F711E0A6E9B1E001C01D9298
:10008000AF3AB107E1F70E9458210C9442220C9438
:100090000000EF92FF920F931F937B018C0120E0F1
:1000A00030E040E05FE40E94F50388238CF0C80153
:1000B000B70120E030E040E05FE40E94C1010E940F
:1000C000B3049B01AC01205030404040504806C072
:1000D000C801B7010E94B3049B01AC01B901CA0178
:1000E0001F910F91FF90EF900895A0E0B0E0EBE733
:1000F000F0E00C940B22DC012B01FA019C91923070
:1001000008F439C1EB018881823008F433C194309E
:1001100069F4843009F02FC111969C91119789815F
:10012000981709F428C1A6E7B0E025C1843009F486
:1001300021C18230A9F4923009F01DC19A01AD01AC
:1001400088E0EA010990AE01E90109929E0181501F
:10015000C1F7E201898111969C918923818308C1AD
:10016000923009F407C112962D903C901397EB0141
:100170008A819B811496AD90BD90CD90DC901797AD
:10018000EC80FD800E811F819101281B390BB90184
:1001900037FF04C066277727621B730B6032710537
:1001A0000CF061C0121613066CF537014801062EDB
:1001B00004C096948794779467940A94D2F721E0C8
:1001C00030E040E050E004C0220F331F441F551FB1
:1001D0006A95D2F721503040404050402E213F21B7
:1001E00040235123211531054105510521F021E01E
:1001F00030E040E050E079018A01E628F72808293C
:1002000019293CC0232BD1F1260E371E350146019A
:10021000062E04C096948794779467940A94D2F734
:1002200021E030E040E050E004C0220F331F441FC3
:10023000551F6A95D2F721503040404050402A2146
:100240003B214C215D21211531054105510521F04E
:1002500021E030E040E050E059016A01A628B728CB
:10026000C828D9280BC0821593052CF01C01AA249C
:10027000BB24650103C0EE24FF24870111969C91E5
:10028000D20111968C91981709F445C0992339F041
:10029000A80197012A193B094C095D0906C0A6016E
:1002A00095012E193F09400B510B57FD08C01182D3
:1002B0003382228224833583468357831DC081E0A5
:1002C00081833382228288279927DC01821B930B4A
:1002D000A40BB50B84839583A683B7830DC0220F2F
:1002E000331F441F551F24833583468357838281E0
:1002F000938101979383828324813581468157813D
:10030000DA01C9010197A109B1098F5F9F4FAF4F72
:10031000BF4328F30BC0918333822282EA0CFB1C7B
:100320000C1D1D1DE482F5820683178383E0808304
:10033000248135814681578157FF1AC0C901AA27F8
:1003400097FDA095BA2F81709070A070B0705695EF
:10035000479537952795822B932BA42BB52B848318
:100360009583A683B7838281938101969383828349
:10037000DF0101C0D201CD01CDB7DEB7E2E10C94BF
:100380002722A0E2B0E0E7ECF1E00C9417226983A9
:100390007A838B839C832D833E834F835887E9E048
:1003A000EE2EF12CEC0EFD1ECE010196B7010E943F
:1003B000A4068E010F5E1F4FCE010596B8010E9464
:1003C000A4068A8991E089278A8BC701B801AE010A
:1003D000475E5F4F0E9475000E94CF05A096E6E041
:1003E0000C943322A0E2B0E0E8EFF1E00C94172285
:1003F00069837A838B839C832D833E834F835887C5
:10040000F9E0EF2EF12CEC0EFD1ECE010196B701A6
:100410000E94A4068E010F5E1F4FCE010596B80103
:100420000E94A406C701B801AE01475E5F4F0E945B
:1004300075000E94CF05A096E6E00C943322A0E25E
:10044000B0E0E5E2F2E00C940B2269837A838B83BF
:100450009C832D833E834F835887CE010196BE0136
:10046000675F7F4F0E94A406CE010596BE016F5EB6
:100470007F4F0E94A4069985923088F08989823046
:10048000C8F0943019F4823051F404C0843029F457
:10049000923081F486E790E0C6C0923049F420E0C3
:1004A0009A858A89981321E02A87CE010996BBC0D4
:1004B000823049F420E09A858A89981321E02A8BBA
:1004C000CE014196B0C02D843E844F8458886D88FB
:1004D0007E888F88988CEE24FF248701AA24BB2471
:1004E000650140E050E060E070E0E0E0F0E0C10174
:1004F00081709070892BE9F0E60CF71C081D191D1E
:100500009A01AB012A0D3B1D4C1D5D1D80E090E062
:10051000A0E0B0E0E614F7040805190520F481E036
:1005200090E0A0E0B0E0BA01A901480F591F6A1F8E
:100530007B1FAA0CBB1CCC1CDD1C97FE08C081E0F5
:1005400090E0A0E0B0E0A82AB92ACA2ADB2A3196B6
:10055000E032F10549F0660C771C881C991C569412
:10056000479437942794C3CFFA85EA892B893C892D
:100570008B859C85280F391F2E5F3F4F17C0CA01FE
:1005800081709070892B61F016950795F794E79428
:1005900080E090E0A0E0B0E8E82AF92A0A2B1B2BC3
:1005A00076956795579547952F5F3F4F77FDE7CF36
:1005B0000CC0440F551F661F771F17FD4160EE0CDE
:1005C000FF1C001F111F21503040403090E05907A0
:1005D00090E0690790E4790760F32B8F3C8FDB0193
:1005E000CA018F779070A070B07080349105A1051A
:1005F000B10561F447FD0AC0E114F10401051105DC
:1006000029F0405C5F4F6F4F7F4F40781A8EFE1786
:1006100011F081E08A8F4D8F5E8F6F8F78A383E01A
:10062000898FCE0149960E94CF05A096E2E10C94F5
:100630002722A8E1B0E0EFE1F3E00C9413226983F4
:100640007A838B839C832D833E834F835887B9E0C5
:10065000EB2EF12CEC0EFD1ECE010196B7010E948F
:10066000A4068E010F5E1F4FCE010596B8010E94B1
:10067000A4062985223008F47EC03989323010F46E
:10068000B8017CC08A859A8989278A87243011F02D
:10069000223031F4231709F06EC066E770E06EC0B7
:1006A000343039F41D861E861F86188A1C861B86E8
:1006B00004C0323021F484E08987B7015FC02B8504
:1006C0003C858B899C89281B390B3C872B87ED84C3
:1006D000FE840F851889AD88BE88CF88D88CEA142F
:1006E000FB040C051D0540F4EE0CFF1C001F111F40
:1006F000215030403C872B8720E030E040E050E044
:1007000080E090E0A0E0B0E460E070E0EA14FB0478
:100710000C051D0540F0282B392B4A2B5B2BEA18C2
:10072000FB080C091D09B695A79597958795EE0CC2
:10073000FF1C001F111F6F5F7F4F6F31710531F775
:10074000DA01C9018F779070A070B0708034910584
:10075000A105B10561F427FD0AC0E114F10401050A
:10076000110529F0205C3F4F4F4F5F4F20782D87B8
:100770003E874F87588BBE01675F7F4FCB010E943A
:10078000CF056896EAE00C942F22A8E1B0E0EBECEC
:10079000F3E00C94172269837A838B839C832D83E7
:1007A0003E834F83588789E0E82EF12CEC0EFD1E26
:1007B000CE010196B7010E94A4068E010F5E1F4F65
:1007C000CE010596B8010E94A4068985823040F0CA
:1007D0008989823028F0C701B8010E941C0701C036
:1007E0008FEF6896E6E00C943322A8E1B0E0EBEFDF
:1007F000F3E00C94172269837A838B839C832D8387
:100800003E834F83588789E0E82EF12CEC0EFD1EC5
:10081000CE010196B7010E94A4068E010F5E1F4F04
:10082000CE010596B8010E94A4068985823040F069
:100830008989823028F0C701B8010E941C0701C0D5
:100840008FEF6896E6E00C943322A8E1B0E0EBE28B
:10085000F4E00C94172269837A838B839C832D8325
:100860003E834F83588789E0E82EF12CEC0EFD1E65
:10087000CE010196B7010E94A4068E010F5E1F4FA4
:10088000CE010596B8010E94A4068985823040F009
:100890008989823028F0C701B8010E941C0701C075
:1008A00081E06896E6E00C943322A8E0B0E0EBE546
:1008B000F4E00C9414229B01AC0183E08983DA01FB
:1008C000C9018827B7FD83959927AA27BB27B82E8A
:1008D000211531054105510519F482E089833AC09B
:1008E0008823A9F0203080E0380780E0480780E8BE
:1008F000580729F460E070E080E09FEC30C0EE24FF
:10090000FF248701E21AF30A040B150B02C07901D8
:100910008A018EE1C82ED12CDC82CB82ED82FE8250
:100920000F831887C801B7010E9480050197181628
:10093000190684F4082E04C0EE0CFF1C001F111FC2
:100940000A94D2F7ED82FE820F831887C81AD90A5B
:10095000DC82CB82BA82CE0101960E94CF05289616
:10096000E9E00C943022ACE0B0E0E9EBF4E00C9468
:100970001B2269837A838B839C83CE010196BE01FF
:100980006B5F7F4F0E94A4068D81823061F18230BF
:1009900050F1843021F48E81882351F12EC02F81B3
:1009A000388537FD20C06E812F3131051CF066235C
:1009B000F9F023C08EE190E0821B930B29853A85E4
:1009C0004B855C8504C056954795379527958A9544
:1009D000D2F76623B1F050954095309521953F4F61
:1009E0004F4F5F4F0EC020E030E040E050E009C0C4
:1009F0002FEF3FEF4FEF5FE704C020E030E040E033
:100A000050E8B901CA012C96E2E00C943722A8E024
:100A1000B0E0EDE0F5E00C9413227B018C01611550
:100A200071058105910519F482E0898360C083E036
:100A300089838EE1C82ED12CDC82CB82ED82FE82AE
:100A40000F831887C801B7010E948005FC01319708
:100A5000F7FF3BC0222733272E1B3F0B57016801AE
:100A6000022E04C0D694C794B794A7940A94D2F7E0
:100A700040E050E060E070E081E090E0A0E0B0E0B5
:100A800004C0880F991FAA1FBB1F2A95D2F7019790
:100A9000A109B1098E219F21A023B1230097A105AF
:100AA000B10521F041E050E060E070E04A295B29A7
:100AB0006C297D294D835E836F8378878EE190E07A
:100AC0008E1B9F0B9C838B8312C0309781F00E2E60
:100AD00004C0EE0CFF1C001F111F0A94D2F7ED8218
:100AE000FE820F831887CE1ADF0ADC82CB821A823D
:100AF000CE0101960E94CF052896EAE00C942F22A1
:100B0000EF92FF920F931F937B018C0180E0E81618
:100B100080E0F80681E0080780E0180788F48FEF8E
:100B2000E816F1040105110531F028F088E090E0A5
:100B3000A0E0B0E017C080E090E0A0E0B0E012C01C
:100B400080E0E81680E0F80680E0080781E01807FA
:100B500028F088E190E0A0E0B0E004C080E190E0FF
:100B6000A0E0B0E020E230E040E050E0281B390B8C
:100B70004A0B5B0B04C016950795F794E7948A958A
:100B8000D2F7F701E258FF4F8081281B3109410954
:100B90005109C9011F910F91FF90EF900895DF92C5
:100BA000EF92FF920F931F93FC01E480F580068182
:100BB0001781D1808081823048F480E090E0A0E10C
:100BC000B0E0E82AF92A0A2B1B2BA5C0843009F4CF
:100BD0009FC0823021F4EE24FF24870105C0E11478
:100BE000F1040105110519F4E0E0F0E096C062811E
:100BF00073819FEF623879070CF05BC022E83FEF0A
:100C0000261B370B2A3131052CF020E030E040E084
:100C100050E02AC0B801A701022E04C0769567955E
:100C2000579547950A94D2F781E090E0A0E0B0E0B4
:100C300004C0880F991FAA1FBB1F2A95D2F70197DE
:100C4000A109B1098E219F21A023B1230097A105FD
:100C5000B10521F081E090E0A0E0B0E09A01AB01A5
:100C6000282B392B4A2B5B2BDA01C9018F77907027
:100C7000A070B07080349105A105B10539F427FF4B
:100C800009C0205C3F4F4F4F5F4F04C0215C3F4F76
:100C90004F4F5F4FE0E0F0E02030A0E03A07A0E0E7
:100CA0004A07A0E45A0710F0E1E0F0E079018A0178
:100CB00027C06038710564F5FB01E158FF4FD8018A
:100CC000C7018F779070A070B07080349105A10536
:100CD000B10539F4E7FE0DC080E490E0A0E0B0E09B
:100CE00004C08FE390E0A0E0B0E0E80EF91E0A1F18
:100CF0001B1F17FF05C016950795F794E7943196CB
:100D000087E016950795F794E7948A95D1F705C083
:100D1000EE24FF248701EFEFF0E06E2F6795662742
:100D20006795902F9F77D794DD24D7948E2F869543
:100D3000492F462B582F5D29B701CA011F910F91EA
:100D4000FF90EF90DF900895FC01DB01408151811D
:100D50002281622F6F7770E0221F2227221F93814A
:100D6000892F880F822B282F30E0991F9927991FF0
:100D700011969C93119721153105A9F5411551053F
:100D80006105710511F482E037C082E89FEF139688
:100D90009C938E9312979A01AB0167E0220F331F49
:100DA000441F551F6A95D1F783E08C930DC0220F25
:100DB000331F441F551F12968D919C9113970197D5
:100DC00013969C938E931297203080E0380780E032
:100DD000480780E4580758F314962D933D934D939C
:100DE0005C93179708952F3F310579F4411551050C
:100DF0006105710519F484E08C93089564FF03C0C4
:100E000081E08C9312C01C9210C02F573040139673
:100E10003C932E93129783E08C9387E0440F551FE9
:100E2000661F771F8A95D1F7706414964D935D9372
:100E30006D937C93179708951F93DC01FB019C91A0
:100E4000923008F447C08081823008F443C0943067
:100E500051F411961C91843099F58181682F70E0CE
:100E6000611B71093FC0843021F0923031F482302F
:100E7000B9F18181882389F12DC011961C911197B8
:100E80008230F1F081811817D9F412962D913C919E
:100E90001397828193818217930794F0281739075B
:100EA000BCF014968D919D910D90BC91A02D248144
:100EB000358146815781281739074A075B0718F49F
:100EC000112341F00AC082179307A407B50740F425
:100ED000112319F061E070E005C06FEF7FEF02C0F1
:100EE00060E070E0CB011F910895DF93CF93CDB701
:100EF000DEB7A3E5B0E0E3E5F0E0808180648C93A9
:100F0000A3E5B0E0E3E5F0E0808188608C93A3E5A1
:100F1000B0E0E3E5F0E0808180618C93A3E5B0E090
:100F2000E3E5F0E0808180628C93A3E5B0E0E3E547
:100F3000F0E080818E7F8C93A3E5B0E0E3E5F0E004
:100F4000808182608C93A3E5B0E0E3E5F0E08081EE
:100F50008B7F8C93CF91DF910895DF93CF930F9286
:100F6000CDB7DEB78983ECE5F0E0898180830F900F
:100F7000CF91DF910895DF93CF9300D0CDB7DEB747
:100F80009A8389830F900F90CF91DF9108951F92DC
:100F90000F920FB60F9211242F933F934F935F93AD
:100FA0006F937F938F939F93AF93BF93EF93FF9331
:100FB000DF93CF93CDB7DEB7E0919601F091970123
:100FC0000995CF91DF91FF91EF91BF91AF919F91E3
:100FD0008F917F916F915F914F913F912F910F90E2
:100FE0000FBE0F901F9018951F920F920FB60F9281
:100FF00011242F933F934F935F936F937F938F931E
:101000009F93AF93BF93EF93FF93DF93CF93CDB7AE
:10101000DEB7E0919801F09199010995CF91DF91A8
:10102000FF91EF91BF91AF919F918F917F916F91C0
:101030005F914F913F912F910F900FBE0F901F9096
:101040001895DF93CF93CDB7DEB7AEE4B0E0EEE412
:10105000F0E080818E7F8C93AEE4B0E0EEE4F0E0CF
:10106000808182608C93AEE4B0E0EEE4F0E08081B9
:101070008B7F8C93AFE4B0E0EFE4F0E080818E7F73
:101080008C93AFE4B0E0EFE4F0E080818D7F8C934F
:10109000AEE4B0E0EEE4F0E08081877F8C93AEE4D4
:1010A000B0E0EEE4F0E080818F7E8C93A9E5B0E0C3
:1010B000E9E5F0E0808184608C93CF91DF91089521
:1010C000DF93CF9300D0CDB7DEB79A838983ECE46A
:1010D000F0E089819A81918380830F900F90CF9166
:1010E000DF910895DF93CF9300D0CDB7DEB79A8319
:1010F0008983ECE4F0E089819A81918380830F9069
:101100000F90CF91DF910895DF93CF9300D0CDB7AB
:10111000DEB79A838983ECE4F0E080819181E981F4
:10112000FA81918380830F900F90CF91DF91089582
:10113000DF93CF9300D0CDB7DEB79A8389830F902A
:101140000F90CF91DF910895DF93CF9300D0CDB76B
:10115000DEB79A838983E6E4F0E089819A819183FE
:1011600080830F900F90CF91DF910895DF93CF93FD
:10117000CDB7DEB7CF91DF910895DF93CF930F9274
:10118000CDB7DEB789830F90CF91DF910895DF93BC
:10119000CF9300D0CDB7DEB79A8389830F900F909D
:1011A000CF91DF9108951F920F920FB60F921124E5
:1011B0002F933F934F935F936F937F938F939F935F
:1011C000AF93BF93EF93FF93DF93CF93CDB7DEB78A
:1011D000E0919A01F0919B010995CF91DF91FF91E8
:1011E000EF91BF91AF919F918F917F916F915F919F
:1011F0004F913F912F910F900FBE0F901F90189518
:101200001F920F920FB60F9211242F933F934F937B
:101210005F936F937F938F939F93AF93BF93EF935E
:10122000FF93DF93CF93CDB7DEB7E0919C01F091B0
:101230009D010995CF91DF91FF91EF91BF91AF9102
:101240009F918F917F916F915F914F913F912F91DE
:101250000F900FBE0F901F9018951F920F920FB610
:101260000F9211242F933F934F935F936F937F932C
:101270008F939F93AF93BF93EF93FF93DF93CF939E
:10128000CDB7DEB7E0919E01F0919F010995CF9116
:10129000DF91FF91EF91BF91AF919F918F917F91DE
:1012A0006F915F914F913F912F910F900FBE0F90D3
:1012B0001F9018951F920F920FB60F9211242F9323
:1012C0003F934F935F936F937F938F939F93AF93CE
:1012D000BF93EF93FF93DF93CF93CDB7DEB7E0914A
:1012E000A001F091A1010995CF91DF91FF91EF91BC
:1012F000BF91AF919F918F917F916F915F914F912E
:101300003F912F910F900FBE0F901F9018951F9235
:101310000F920FB60F9211242F933F934F935F9329
:101320006F937F938F939F93AF93BF93EF93FF93AD
:10133000DF93CF93CDB7DEB7E091A201F091A30187
:101340000995CF91DF91FF91EF91BF91AF919F915F
:101350008F917F916F915F914F913F912F910F905E
:101360000FBE0F901F901895DF93CF9300D000D041
:10137000CDB7DEB789838981282F30E03C832B836A
:101380008B819C81009731F02B813C81213031058C
:1013900049F010C0AFE5B0E0EFE5F0E08081806893
:1013A0008C930AC0AFE5B0E0EFE5F0E080818F7785
:1013B0008C9302C01A8202C031E03A838A810F9076
:1013C0000F900F900F90CF91DF910895DF93CF93FF
:1013D00000D000D0CDB7DEB789838981282F30E0D7
:1013E0003C832B838B819C81009731F02B813C8146
:1013F0002130310549F010C0ABE5B0E0EBE5F0E09D
:10140000808180648C930AC0ABE5B0E0EBE5F0E04E
:1014100080818F7B8C9302C01A8202C031E03A83B4
:101420008A810F900F900F900F90CF91DF910895C8
:10143000DF93CF9300D000D0CDB7DEB78983ABE583
:10144000B0E0EBE5F0E0808180648C938981282F07
:1014500030E03C832B838B819C810097A1F02B8112
:101460003C8121303105F1F4A5E5B0E0E5E5F0E09F
:10147000808181608C93A5E5B0E0E5E5F0E08081B6
:1014800082608C9311C0A5E5B0E0E5E5F0E08081D5
:101490008E7F8C93A5E5B0E0E5E5F0E08081826089
:1014A0008C9302C01A8202C031E03A838A810F9085
:1014B0000F900F900F90CF91DF910895DF93CF930E
:1014C00000D0CDB7DEB79A83898389819A819093C2
:1014D0009F0180939E0181E00F900F90CF91DF914B
:1014E0000895DF93CF9300D000D0CDB7DEB78983C6
:1014F0008981282F30E03C832B838B819C8100974E
:1015000031F02B813C812130310549F010C0ABE531
:10151000B0E0EBE5F0E0808180688C930AC0ABE539
:10152000B0E0EBE5F0E080818F778C9302C01A8207
:1015300002C031E03A838A810F900F900F900F9094
:10154000CF91DF910895DF93CF9300D000D0CDB736
:10155000DEB789838981282F30E03C832B838B8100
:101560009C81009731F02B813C812130310581F045
:101570001EC0A5E5B0E0E5E5F0E080818B7F8C93AF
:10158000A5E5B0E0E5E5F0E0808188608C9311C0CE
:10159000A5E5B0E0E5E5F0E0808184608C93A5E509
:1015A000B0E0E5E5F0E0808188608C9302C01A82AB
:1015B00002C031E03A838A810F900F900F900F9014
:1015C000CF91DF910895DF93CF9300D0CDB7DEB7F1
:1015D0009A83898389819A819093A1018093A00144
:1015E00081E00F900F90CF91DF910895DF93CF931B
:1015F00000D000D0CDB7DEB789838981282F30E0B5
:101600003C832B838B819C81009731F02B813C8123
:101610002130310549F010C0ABE5B0E0EBE5F0E07A
:10162000808180628C930AC0ABE5B0E0EBE5F0E02E
:1016300080818F7D8C9302C01A8202C031E03A8390
:101640008A810F900F900F900F90CF91DF910895A6
:10165000DF93CF9300D000D0CDB7DEB789838981E7
:10166000282F30E03C832B838B819C81009779F07D
:101670002B813C8121303105A1F4A4E5B0E0E4E503
:10168000F0E0808180648C9331E03A830BC0A4E564
:10169000B0E0E4E5F0E080818F7B8C9381E08A8389
:1016A00001C01A828A810F900F900F900F90CF91F6
:1016B000DF910895DF93CF9300D0CDB7DEB79A8343
:1016C000898389819A819093A3018093A20181E00B
:1016D0000F900F90CF91DF910895DF93CF93CDB707
:1016E000DEB7EAE3F0E01082E7E3F0E01082E4E343
:1016F000F0E01082E1E3F0E01082EBE3F0E0108232
:10170000E8E3F0E01082E5E3F0E01082E2E3F0E0ED
:101710001082A0E5B0E0E0E5F0E080818B7F8C9363
:10172000CF91DF910895DF93CF93CDB7DEB72E979A
:101730000FB6F894DEBF0FBECDBF89836A834B839B
:101740008A81883010F01E860EC18981282F30E0F2
:101750003D872C878C859D858130910509F451C08A
:101760002C853D85223031052CF48C859D85009794
:1017700071F0F5C02C853D852230310509F47BC020
:101780008C859D858330910509F4AFC0E8C08B81BD
:10179000282F30E03B872A878A859B85009731F088
:1017A0002A853B8521303105B1F029C0AAE3B0E09C
:1017B000EAE3F0E08081482F8A81282F30E081E041
:1017C00090E0022E02C0880F991F0A94E2F78095DC
:1017D00084238C93C6C0AAE3B0E0EAE3F0E0808102
:1017E000482F8A81282F30E081E090E0022E02C04D
:1017F000880F991F0A94E2F7842B8C93B2C01E863F
:10180000B2C08B81282F30E0398728878885998559
:10181000009731F02885398521303105B1F029C094
:10182000A7E3B0E0E7E3F0E08081482F8A81282F2A
:1018300030E081E090E0022E02C0880F991F0A94E8
:10184000E2F7809584238C938CC0A7E3B0E0E7E3B4
:10185000F0E08081482F8A81282F30E081E090E0FD
:10186000022E02C0880F991F0A94E2F7842B8C93F2
:1018700078C01E8678C08B81282F30E03F832E836E
:101880008E819F81009731F02E813F81213031057B
:10189000B1F029C0A4E3B0E0E4E3F0E08081482F98
:1018A0008A81282F30E081E090E0022E02C0880F6C
:1018B000991F0A94E2F7809584238C9352C0A4E385
:1018C000B0E0E4E3F0E08081482F8A81282F30E007
:1018D00081E090E0022E02C0880F991F0A94E2F77F
:1018E000842B8C933EC01E863EC08B81282F30E017
:1018F0003D832C838C819D81009731F02C813D812B
:1019000021303105B1F029C0A1E3B0E0E1E3F0E01E
:101910008081482F8A81282F30E081E090E0022EDC
:1019200002C0880F991F0A94E2F7809584238C9354
:1019300018C0A1E3B0E0E1E3F0E08081482F8A81A4
:10194000282F30E081E090E0022E02C0880F991F1E
:101950000A94E2F7842B8C9304C01E8604C01E8672
:1019600002C031E03E878E852E960FB6F894DEBF1A
:101970000FBECDBFCF91DF910895DF93CF9300D0FD
:1019800000D00F92CDB7DEB789836A838981282F73
:1019900030E03D832C838C819D8181309105D1F095
:1019A0002C813D81223031052CF48C819D81009762
:1019B00061F01FC02C813D812230310581F08C8186
:1019C0009D818330910581F014C0EAE3F0E08A81C3
:1019D000808311C0E7E3F0E08A8180830CC0E4E3F8
:1019E000F0E08A81808307C0E1E3F0E08A818083B0
:1019F00002C01B8202C091E09B838B810F900F90ED
:101A00000F900F900F90CF91DF910895DF93CF93B8
:101A1000CDB7DEB72E970FB6F894DEBF0FBECDBFA1
:101A200089836A834B838A81883010F01E860EC1B9
:101A30008981282F30E03D872C878C859D858130DA
:101A4000910509F451C02C853D85223031052CF4D7
:101A50008C859D85009771F0F5C02C853D852230E1
:101A6000310509F47BC08C859D858330910509F48F
:101A7000AFC0E8C08B81282F30E03B872A878A855A
:101A80009B85009731F02A853B8521303105B1F0E7
:101A900029C0ABE3B0E0EBE3F0E08081482F8A811E
:101AA000282F30E081E090E0022E02C0880F991FBD
:101AB0000A94E2F7809584238C93C6C0ABE3B0E030
:101AC000EBE3F0E08081482F8A81282F30E081E02D
:101AD00090E0022E02C0880F991F0A94E2F7842B2F
:101AE0008C93B2C01E86B2C08B81282F30E039871C
:101AF000288788859985009731F028853985213098
:101B00003105B1F029C0A8E3B0E0E8E3F0E080815E
:101B1000482F8A81282F30E081E090E0022E02C019
:101B2000880F991F0A94E2F7809584238C938CC0C8
:101B3000A8E3B0E0E8E3F0E08081482F8A81282F15
:101B400030E081E090E0022E02C0880F991F0A94D5
:101B5000E2F7842B8C9378C01E8678C08B81282F67
:101B600030E03F832E838E819F81009731F02E815C
:101B70003F8121303105B1F029C0A5E3B0E0E5E3B4
:101B8000F0E08081482F8A81282F30E081E090E0CA
:101B9000022E02C0880F991F0A94E2F780958423D1
:101BA0008C9352C0A5E3B0E0E5E3F0E08081482FDC
:101BB0008A81282F30E081E090E0022E02C0880F59
:101BC000991F0A94E2F7842B8C933EC01E863EC078
:101BD0008B81282F30E03D832C838C819D81009761
:101BE00031F02C813D8121303105B1F029C0A2E3D3
:101BF000B0E0E2E3F0E08081482F8A81282F30E0D6
:101C000081E090E0022E02C0880F991F0A94E2F74B
:101C1000809584238C9318C0A2E3B0E0E2E3F0E067
:101C20008081482F8A81282F30E081E090E0022EC9
:101C300002C0880F991F0A94E2F7842B8C9304C08A
:101C40001E8604C01E8602C031E03E878E852E9619
:101C50000FB6F894DEBF0FBECDBFCF91DF910895D0
:101C6000DF93CF9300D000D00F92CDB7DEB789833A
:101C70006A838981282F30E03D832C838C819D816C
:101C800081309105D1F02C813D81223031052CF439
:101C90008C819D81009761F01FC02C813D81223095
:101CA000310581F08C819D818330910581F014C0D4
:101CB000EBE3F0E08A81808311C0E8E3F0E08A8101
:101CC00080830CC0E5E3F0E08A81808307C0E2E313
:101CD000F0E08A81808302C01B8202C091E09B8376
:101CE0008B810F900F900F900F900F90CF91DF91FD
:101CF0000895DF93CF93CDB7DEB727970FB6F8944B
:101D0000DEBF0FBECDBF89836A835C834B838A812C
:101D1000883010F01F8275C08981282F30E03E8303
:101D20002D834D815E814130510559F18D819E8118
:101D30008230910534F42D813E812115310569F001
:101D40005CC04D815E814230510579F18D819E816B
:101D50008330910509F43DC050C0E9E3F0E0808193
:101D6000282F30E08A81882F90E0A90102C0559584
:101D700047958A95E2F7CA018170EB81FC818083E7
:101D80003EC0E6E3F0E08081282F30E08A81882F92
:101D900090E0A90102C0559547958A95E2F7CA01DE
:101DA0008170EB81FC8180832AC0E3E3F0E08081D5
:101DB000282F30E08A81882F90E0A90102C0559534
:101DC00047958A95E2F7CA018170EB81FC81808397
:101DD00016C0E0E3F0E08081282F30E08A81882F70
:101DE00090E0A90102C0559547958A95E2F7CA018E
:101DF0008170EB81FC81808302C01F8202C051E0B0
:101E00005F838F8127960FB6F894DEBF0FBECDBFDC
:101E1000CF91DF910895DF93CF9300D000D00F9240
:101E2000CDB7DEB789836A838A81883010F01D823E
:101E300073C08981282F30E03C832B838B819C8168
:101E40008130910549F12B813C81223031052CF400
:101E50008B819C81009761F05BC02B813C8122309B
:101E6000310571F18B819C8183309105E9F150C07E
:101E7000ABE3B0E0EBE3F0E08081482F8A81282FCC
:101E800030E081E090E0022E02C0880F991F0A9492
:101E9000E2F784278C933EC0A8E3B0E0E8E3F0E0EB
:101EA0008081482F8A81282F30E081E090E0022E47
:101EB00002C0880F991F0A94E2F784278C932AC0E6
:101EC000A5E3B0E0E5E3F0E08081482F8A81282F88
:101ED00030E081E090E0022E02C0880F991F0A9442
:101EE000E2F784278C9316C0A2E3B0E0E2E3F0E0CF
:101EF0008081482F8A81282F30E081E090E0022EF7
:101F000002C0880F991F0A94E2F784278C9302C0BD
:101F10001D8202C091E09D838D810F900F900F90E4
:101F20000F900F90CF91DF910895DF93CF93CDB7AE
:101F3000DEB72E970FB6F894DEBF0FBECDBF8983F4
:101F40006A834B838A81883010F01E8626C189817E
:101F5000282F30E03D872C878C859D858130910529
:101F600009F457C02C853D85223031052CF48C8531
:101F70009D85009771F00DC12C853D85223031057E
:101F800009F487C08C859D858330910509F4C1C013
:101F900000C18B81282F30E03B872A878A859B856B
:101FA000009731F02A853B852130310541F12FC062
:101FB000AAE3B0E0EAE3F0E08081482F8A81282F8D
:101FC00030E081E090E002C0880F991F2A95E2F787
:101FD000809584238C93ABE3B0E0EBE3F0E0808169
:101FE000482F8A81282F30E081E090E0022E02C045
:101FF000880F991F0A94E2F7842B8C93CCC0A0E53C
:10200000B0E0E0E5F0E0808184608C93C4C01E867F
:10201000C4C08B81282F30E039872887888599852F
:10202000009731F0288539852130310541F12FC0E5
:10203000A7E3B0E0E7E3F0E08081482F8A81282F12
:1020400030E081E090E002C0880F991F2A95E2F706
:10205000809584238C93A8E3B0E0E8E3F0E08081EE
:10206000482F8A81282F30E081E090E0022E02C0C4
:10207000880F991F0A94E2F7842B8C938CC0A0E5FB
:10208000B0E0E0E5F0E0808184608C9384C01E863F
:1020900084C08B81282F30E03F832E838E819F81E7
:1020A000009731F02E813F812130310541F12FC061
:1020B000A4E3B0E0E4E3F0E08081482F8A81282F98
:1020C00030E081E090E002C0880F991F2A95E2F786
:1020D000809584238C93A5E3B0E0E5E3F0E0808174
:1020E000482F8A81282F30E081E090E0022E02C044
:1020F000880F991F0A94E2F7842B8C934CC0A0E5BB
:10210000B0E0E0E5F0E0808184608C9344C01E86FE
:1021100044C08B81282F30E03D832C838C819D81AE
:10212000009731F02C813D812130310541F12FC0E4
:10213000A1E3B0E0E1E3F0E08081482F8A81282F1D
:1021400030E081E090E002C0880F991F2A95E2F705
:10215000809584238C93A2E3B0E0E2E3F0E08081F9
:10216000482F8A81282F30E081E090E0022E02C0C3
:10217000880F991F0A94E2F7842B8C930CC0A0E57A
:10218000B0E0E0E5F0E0808184608C9304C01E86BE
:1021900004C01E8602C031E03E878E852E960FB6A3
:1021A000F894DEBF0FBECDBFCF91DF910895DF93CE
:1021B000CF9300D000D0CDB7DEB78983A7E2B0E0DF
:1021C000E7E2F0E080818F7D8C93A7E2B0E0E7E268
:1021D000F0E0808180648C93A7E2B0E0E7E2F0E079
:1021E00080818F778C93A6E2B0E0E6E2F0E0808118
:1021F00081608C93A6E2B0E0E6E2F0E0808182604C
:102200008C93A6E2B0E0E6E2F0E0808184608C93FB
:102210008981282F30E03C832B838B819C81009720
:1022200031F02B813C812130310549F010C0A6E20C
:10223000B0E0E6E2F0E0808180688C930AC0A6E21C
:10224000B0E0E6E2F0E080818F778C9302C01A82E2
:1022500002C031E03A838A810F900F900F900F9067
:10226000CF91DF910895DF93CF9300D000D0CDB709
:10227000DEB789838981282F30E03C832B838B81D3
:102280009C81009731F02B813C812130310549F050
:1022900010C0A6E2B0E0E6E2F0E0808188608C93B6
:1022A0000AC0A6E2B0E0E6E2F0E08081877F8C938E
:1022B00002C01A8202C031E03A838A810F900F90E7
:1022C0000F900F90CF91DF910895DF93CF9300D0BF
:1022D000CDB7DEB789838981883010F01A8221C09A
:1022E000A7E2B0E0E7E2F0E08081887F8C93A7E28C
:1022F000B0E0E7E2F0E090818981892B8C93A6E23F
:10230000B0E0E6E2F0E0808180648C93E6E2F0E009
:102310008081882F90E0807490700097B9F781E0F9
:102320008A838A810F900F90CF91DF910895DF9378
:10233000CF9300D000D0CDB7DEB79C838B831A82B9
:102340001982E4E2F0E08081282F30E0E5E2F0E05D
:102350008081882F90E0982F8827820F931F9A837F
:10236000898389819A819370EB81FC819183808339
:1023700081E00F900F900F900F90CF91DF91089513
:10238000DF93CF9300D000D000D0CDB7DEB78B83E2
:102390007D836C831A8219828B818830C0F01E8203
:1023A00038C0A7E2B0E0E7E2F0E08081887F8C935C
:1023B000A7E2B0E0E7E2F0E090818B81892B8C937B
:1023C000A6E2B0E0E6E2F0E0808180648C93E6E291
:1023D000F0E08081882F90E080749070009709F77A
:1023E000E4E2F0E08081282F30E0E5E2F0E0808157
:1023F000882F90E0982F8827820F931F9A838983D4
:1024000089819A819370EC81FD819183808381E041
:102410008E838E8126960FB6F894DEBF0FBECDBF99
:10242000CF91DF910895DF93CF9300D000D000D0FB
:10243000CDB7DEB78B837D836C831A8219828B8143
:10244000883010F01E822EC08B819E012F5F3F4F7F
:10245000B9010E94C01189819A81CC01A0E0B0E04D
:10246000BC01CD010E940705DC01CB01BC01CD01FF
:1024700020E030E040EA50E40E941F02DC01CB0182
:10248000BC01CD0120E030E040E854E40E94190393
:10249000DC01CB01EC81FD8180839183A283B38336
:1024A00081E08E838E8126960FB6F894DEBF0FBE34
:1024B000CDBFCF91DF910895DF93CF9300D0CDB7FB
:1024C000DEB79A83898389819A819093A50180934D
:1024D000A4010F900F90CF91DF9108951F920F925A
:1024E0000FB60F9211242F933F934F935F936F93E7
:1024F0007F938F939F93AF93BF93EF93FF93DF935C
:10250000CF93CDB7DEB7E091A401F091A501099575
:10251000CF91DF91FF91EF91BF91AF919F918F91FB
:102520007F916F915F914F913F912F910F900FBECF
:102530000F901F901895DF93CF93CDB7DEB72A97F2
:102540000FB6F894DEBF0FBECDBF89836A834B837D
:102550008A81282F30E03A87298789859A850097D4
:1025600039F029853A852130310509F477C0ECC06E
:102570008B81282F30E038872F838F819885813099
:10258000910559F12F813885223031052CF48F8146
:102590009885009769F060C02F8138852230310519
:1025A00089F18F8198858330910509F440C054C02A
:1025B00080E060E041E00E94930B80E061E041E058
:1025C0000E94930B80E060E041E00E94060D80E0F5
:1025D00061E041E00E94060DB9C080E060E041E0AA
:1025E0000E94930B80E061E041E00E94930B80E049
:1025F00060E040E00E94060D80E061E041E00E9462
:10260000060DA4C080E060E041E00E94930B80E0F2
:1026100061E041E00E94930B80E060E041E00E94B5
:10262000060D80E061E040E00E94060D8FC080E072
:1026300060E041E00E94930B80E061E041E00E9495
:10264000930B80E060E040E00E94060D80E061E0D6
:1026500040E00E94060D7AC01E827AC08B81282F2E
:1026600030E03D832C838C819D818130910559F12F
:102670002C813D81223031052CF48C819D81009785
:1026800069F060C02C813D812230310589F18C8157
:102690009D818330910509F440C054C080E060E022
:1026A00041E00E94930B80E061E041E00E94930BC7
:1026B00080E060E040E00E94060D80E061E040E0E4
:1026C0000E94060D43C080E060E041E00E94930B51
:1026D00080E061E041E00E94930B80E060E041E037
:1026E0000E94060D80E061E040E00E94060D2EC0D1
:1026F00080E060E041E00E94930B80E061E041E017
:102700000E94930B80E060E040E00E94060D80E0B4
:1027100061E041E00E94060D19C080E060E041E008
:102720000E94930B80E061E041E00E94930B80E007
:1027300060E041E00E94060D80E060E041E00E9420
:10274000060D04C01E8204C01E8202C091E09E835A
:102750008E812A960FB6F894DEBF0FBECDBFCF9103
:10276000DF910895DF93CF93CDB7DEB76E970FB6A5
:10277000F894DEBF0FBECDBF89836A834B83898106
:10278000282F30E03E8F2D8F8D8D9E8D81309105CD
:1027900009F44FC22D8D3E8D2230310534F48D8DDC
:1027A0009E8D009781F00C94971C2D8D3E8D2230CC
:1027B000310509F468C48D8D9E8D8330910509F42F
:1027C0008CC60C94971C8A81282F30E03C8F2B8F6D
:1027D0008B8D9C8D009739F02B8D3C8D21303105F0
:1027E00009F418C124C280E06FEF0E94BD0C80E0A4
:1027F00067E040E00E94060D8B81282F30E03A8F81
:10280000298F898D9A8D8430910509F492C0298D84
:102810003A8D25303105ECF4898D9A8D8130910502
:1028200009F44BC0298D3A8D223031052CF4898D65
:102830009A8D009799F1EBC0298D3A8D22303105A0
:1028400009F44FC0898D9A8D8330910509F45DC0DC
:10285000DEC0298D3A8D2730310509F4A6C0898D57
:102860009A8D883091056CF4298D3A8D253031058B
:1028700009F478C0898D9A8D8630910509F486C057
:10288000C6C0298D3A8D2830310509F4A7C0898D3D
:102890009A8D8930910509F4ABC0B9C080E06FEF23
:1028A0000E94BD0C80E06FEF0E94300E80E066E079
:1028B00040E00E94060D0C94991C80E06FEF0E948E
:1028C000BD0C80E060E00E94300E80E061E041E0FD
:1028D0000E94060D80E062E041E00E94060D0C942B
:1028E000991C80E06FEF0E94BD0C80E06FEF0E94AA
:1028F000300E80E062E040E00E94060D80E065E07E
:1029000040E00E94060D0C94991C80E06FEF0E943D
:10291000BD0C80E06FEF0E94300E80E064E040E08C
:102920000E94060D80E065E040E00E94060D0C94D8
:10293000991C80E06FEF0E94BD0C80E06FEF0E9459
:10294000300E80E060E040E00E94060D80E063E031
:1029500040E00E94060D80E064E040E00E94060D29
:102960000C94991C80E06FEF0E94BD0C80E06FEF2B
:102970000E94300E80E061E040E00E94060D80E0A1
:1029800064E040E00E94060D0C94991C80E06FEF1B
:102990000E94BD0C80E06FEF0E94300E80E061E08D
:1029A00040E00E94060D0C94991C80E06FEF0E949D
:1029B000BD0C80E060E00E94300E80E060E041E00D
:1029C0000E94060D80E061E041E00E94060D80E07B
:1029D00062E041E00E94060D0C94991C80E06FEFCC
:1029E0000E94BD0C80E06FEF0E94300E0C94991C89
:1029F00080E06FEF0E94BD0C80E06FEF0E94300E10
:102A000080E064E040E00E94060D0C94991C188E52
:102A10000C949B1C80E06FEF0E94BD0C80E067E08F
:102A200041E00E94060D8B81282F30E03F8B2E8BDA
:102A30008E899F898430910509F48FC02E893F8942
:102A400025303105ECF48E899F898130910509F498
:102A50004BC02E893F89223031052CF48E899F8905
:102A6000009799F1E2C02E893F892230310509F49F
:102A70004EC08E899F898330910509F45BC0D5C013
:102A80002E893F892730310509F4A0C08E899F899E
:102A9000883091056CF42E893F892530310509F481
:102AA00074C08E899F898630910509F481C0BDC0AC
:102AB0002E893F892830310509F4A0C08E899F896D
:102AC0008930910509F4A3C0B0C080E06FEF0E9487
:102AD000BD0C80E060E00E94300E80E066E041E0E6
:102AE0000E94060D0C94991C80E06FEF0E94BD0CB3
:102AF00080E06FEF0E94300E80E061E040E00E94D5
:102B0000060D80E062E040E00E94060D12C780E002
:102B10006FEF0E94BD0C80E060E00E94300E80E00C
:102B200062E041E00E94060D80E065E041E00E9425
:102B3000060DFFC680E06FEF0E94BD0C80E060E0F4
:102B40000E94300E80E064E041E00E94060D80E0CB
:102B500065E041E00E94060DECC680E06FEF0E9448
:102B6000BD0C80E060E00E94300E80E060E041E05B
:102B70000E94060D80E063E041E00E94060D80E0C7
:102B800064E041E00E94060DD4C680E06FEF0E9431
:102B9000BD0C80E060E00E94300E80E061E041E02A
:102BA0000E94060D80E064E041E00E94060DC1C66F
:102BB00080E06FEF0E94BD0C80E060E00E94300E6C
:102BC00080E061E041E00E94060DB3C680E06FEF57
:102BD0000E94BD0C80E06FEF0E94300E80E060E04C
:102BE00040E00E94060D80E061E040E00E94060D9A
:102BF00080E062E040E00E94060D9BC680E06FEF3F
:102C00000E94BD0C80E060E00E94300E92C680E021
:102C10006FEF0E94BD0C80E060E00E94300E80E00B
:102C200064E041E00E94060D84C6188E84C6188EAA
:102C300082C68A81282F30E03D8B2C8B8C899D8920
:102C4000009739F02C893D892130310509F40DC1F7
:102C500018C281E06FEF0E94BD0C81E067E040E0A8
:102C60000E94060D8B81282F30E03B8B2A8B8A89AE
:102C70009B898430910509F48EC02A893B892530CF
:102C80003105ECF48A899B898130910509F44AC0A9
:102C90002A893B89223031052CF48A899B89009747
:102CA00099F1E1C02A893B892230310509F44DC0F0
:102CB0008A899B898330910509F45AC0D4C02A8936
:102CC0003B892730310509F49FC08A899B89883068
:102CD00091056CF42A893B892530310509F473C0CC
:102CE0008A899B898630910509F480C0BCC02A89F5
:102CF0003B892830310509F49FC08A899B89893036
:102D0000910509F4A2C0AFC081E06FEF0E94BD0C35
:102D100081E06FEF0E94300E81E066E040E00E94AB
:102D2000060D07C681E06FEF0E94BD0C81E060E0F8
:102D30000E94300E81E061E041E00E94060D81E0DA
:102D400062E041E00E94060DF4C581E06FEF0E9451
:102D5000BD0C81E06FEF0E94300E81E062E040E048
:102D60000E94060D81E065E040E00E94060DE1C58D
:102D700081E06FEF0E94BD0C81E06FEF0E94300E8A
:102D800081E064E040E00E94060D81E065E040E003
:102D90000E94060DCEC581E06FEF0E94BD0C81E060
:102DA0006FEF0E94300E81E060E040E00E94060D6F
:102DB00081E063E040E00E94060D81E064E040E0D5
:102DC0000E94060DB6C581E06FEF0E94BD0C81E048
:102DD0006FEF0E94300E81E061E040E00E94060D3E
:102DE00081E064E040E00E94060DA3C581E06FEF42
:102DF0000E94BD0C81E06FEF0E94300E81E061E027
:102E000040E00E94060D95C581E06FEF0E94BD0C69
:102E100081E060E00E94300E81E060E041E00E94CD
:102E2000060D81E061E041E00E94060D81E062E074
:102E300041E00E94060D7DC581E06FEF0E94BD0C50
:102E400081E06FEF0E94300E74C581E06FEF0E9449
:102E5000BD0C81E06FEF0E94300E81E064E040E045
:102E60000E94060D66C5188E66C581E06FEF0E9450
:102E7000BD0C81E067E041E00E94060D8B81282FA8
:102E800030E0398B288B888999898430910509F441
:102E90008EC02889398925303105ECF488899989D3
:102EA0008130910509F44AC02889398922303105D9
:102EB0002CF488899989009799F1E1C0288939898A
:102EC0002230310509F44DC08889998983309105F4
:102ED00009F45AC0D4C0288939892730310509F44A
:102EE0009FC088899989883091056CF4288939892F
:102EF0002530310509F473C0888999898630910598
:102F000009F480C0BCC0288939892830310509F40A
:102F10009FC0888999898930910509F4A2C0AFC002
:102F200081E06FEF0E94BD0C81E060E00E94300EF6
:102F300081E066E041E00E94060DFBC481E06FEF96
:102F40000E94BD0C81E06FEF0E94300E81E061E0D5
:102F500040E00E94060D81E062E040E00E94060D24
:102F6000E8C481E06FEF0E94BD0C81E060E00E9448
:102F7000300E81E062E041E00E94060D81E065E0F4
:102F800041E00E94060DD5C481E06FEF0E94BD0CA8
:102F900081E060E00E94300E81E064E041E00E9448
:102FA000060D81E065E041E00E94060DC2C481E0AB
:102FB0006FEF0E94BD0C81E060E00E94300E81E066
:102FC00060E041E00E94060D81E063E041E00E9484
:102FD000060D81E064E041E00E94060DAAC481E094
:102FE0006FEF0E94BD0C81E060E00E94300E81E036
:102FF00061E041E00E94060D81E064E041E00E9452
:10300000060D97C481E06FEF0E94BD0C81E060E087
:103010000E94300E81E061E041E00E94060D89C40B
:1030200081E06FEF0E94BD0C81E06FEF0E94300ED7
:1030300081E060E040E00E94060D81E061E040E058
:103040000E94060D81E062E040E00E94060D71C41E
:1030500081E06FEF0E94BD0C81E060E00E94300EC5
:1030600068C481E06FEF0E94BD0C81E060E00E94C7
:10307000300E81E064E041E00E94060D5AC4188ED3
:103080005AC4188E58C48A81282F30E03F872E8773
:103090008E859F85009739F02E853F85213031053B
:1030A00009F40DC118C282E06FEF0E94BD0C82E0EE
:1030B00067E040E00E94060D8B81282F30E03D87BD
:1030C0002C878C859D858430910509F48EC02C85D4
:1030D0003D8525303105ECF48C859D858130910549
:1030E00009F44AC02C853D85223031052CF48C85AD
:1030F0009D85009799F1E1C02C853D8522303105F1
:1031000009F44DC08C859D858330910509F45AC022
:10311000D4C02C853D852730310509F49FC08C85AE
:103120009D85883091056CF42C853D8525303105D1
:1031300009F473C08C859D858630910509F480C0A3
:10314000BCC02C853D852830310509F49FC08C8595
:103150009D858930910509F4A2C0AFC082E06FEF70
:103160000E94BD0C82E06FEF0E94300E82E066E0AC
:1031700040E00E94060DDDC382E06FEF0E94BD0CAF
:1031800082E060E00E94300E82E061E041E00E9457
:10319000060D82E062E041E00E94060DCAC382E0B3
:1031A0006FEF0E94BD0C82E06FEF0E94300E82E054
:1031B00062E040E00E94060D82E065E040E00E948F
:1031C000060DB7C382E06FEF0E94BD0C82E06FEF87
:1031D0000E94300E82E064E040E00E94060D82E032
:1031E00065E040E00E94060DA4C382E06FEF0E94FC
:1031F000BD0C82E06FEF0E94300E82E060E040E0A4
:103200000E94060D82E063E040E00E94060D82E02D
:1032100064E040E00E94060D8CC382E06FEF0E94E4
:10322000BD0C82E06FEF0E94300E82E061E040E072
:103230000E94060D82E064E040E00E94060D79C322
:1032400082E06FEF0E94BD0C82E06FEF0E94300EB3
:1032500082E061E040E00E94060D6BC382E06FEF08
:103260000E94BD0C82E060E00E94300E82E060E0CF
:1032700041E00E94060D82E061E041E00E94060DFF
:1032800082E062E041E00E94060D53C382E06FEFEE
:103290000E94BD0C82E06FEF0E94300E4AC382E0B4
:1032A0006FEF0E94BD0C82E06FEF0E94300E82E053
:1032B00064E040E00E94060D3CC3188E3CC382E0EF
:1032C0006FEF0E94BD0C82E067E041E00E94060DB6
:1032D0008B81282F30E03B872A878A859B85843025
:1032E000910509F48EC02A853B8525303105ECF423
:1032F0008A859B858130910509F44AC02A853B85E2
:10330000223031052CF48A859B85009799F1E1C024
:103310002A853B852230310509F44DC08A859B857D
:103320008330910509F45AC0D4C02A853B852730E3
:10333000310509F49FC08A859B85883091056CF41E
:103340002A853B852530310509F473C08A859B8524
:103350008630910509F480C0BCC02A853B852830A1
:10336000310509F49FC08A859B858930910509F450
:10337000A2C0AFC082E06FEF0E94BD0C82E060E0AF
:103380000E94300E82E066E041E00E94060DD1C24C
:1033900082E06FEF0E94BD0C82E06FEF0E94300E62
:1033A00082E061E040E00E94060D82E062E040E0E1
:1033B0000E94060DBEC282E06FEF0E94BD0C82E04B
:1033C00060E00E94300E82E062E041E00E94060D63
:1033D00082E065E041E00E94060DABC282E06FEF43
:1033E0000E94BD0C82E060E00E94300E82E064E04A
:1033F00041E00E94060D82E065E041E00E94060D7A
:1034000098C282E06FEF0E94BD0C82E060E00E94F3
:10341000300E82E060E041E00E94060D82E063E051
:1034200041E00E94060D82E064E041E00E94060D4A
:1034300080C282E06FEF0E94BD0C82E060E00E94DB
:10344000300E82E061E041E00E94060D82E064E01F
:1034500041E00E94060D6DC282E06FEF0E94BD0C3C
:1034600082E060E00E94300E82E061E041E00E9474
:10347000060D5FC282E06FEF0E94BD0C82E06FEF2D
:103480000E94300E82E060E040E00E94060D82E083
:1034900061E040E00E94060D82E062E040E00E94B0
:1034A000060D47C282E06FEF0E94BD0C82E060E033
:1034B0000E94300E3EC282E06FEF0E94BD0C82E09F
:1034C00060E00E94300E82E064E041E00E94060D60
:1034D00030C2188E30C2188E2EC28A81282F30E05A
:1034E0003987288788859985009739F02885398517
:1034F0002130310509F40DC118C283E06FEF0E943D
:10350000BD0C83E067E040E00E94060D8B81282F10
:1035100030E03F832E838E819F818430910509F4B2
:103520008EC02E813F8125303105ECF48E819F8144
:103530008130910509F44AC02E813F812230310546
:103540002CF48E819F81009799F1E1C02E813F81FB
:103550002230310509F44DC08E819F818330910561
:1035600009F45AC0D4C02E813F812730310509F4B7
:103570009FC08E819F81883091056CF42E813F81A0
:103580002530310509F473C08E819F818630910505
:1035900009F480C0BCC02E813F812830310509F478
:1035A0009FC08E819F818930910509F4A2C0AFC070
:1035B00083E06FEF0E94BD0C83E06FEF0E94300E3E
:1035C00083E066E040E00E94060DB3C183E06FEF48
:1035D0000E94BD0C83E060E00E94300E83E061E059
:1035E00041E00E94060D83E062E041E00E94060D8A
:1035F000A0C183E06FEF0E94BD0C83E06FEF0E94DB
:10360000300E83E062E040E00E94060D83E065E05A
:1036100040E00E94060D8DC183E06FEF0E94BD0C5B
:1036200083E06FEF0E94300E83E064E040E00E9490
:10363000060D83E065E040E00E94060D7AC183E05C
:103640006FEF0E94BD0C83E06FEF0E94300E83E0AD
:1036500060E040E00E94060D83E063E040E00E94ED
:10366000060D83E064E040E00E94060D62C183E045
:103670006FEF0E94BD0C83E06FEF0E94300E83E07D
:1036800061E040E00E94060D83E064E040E00E94BB
:10369000060D4FC183E06FEF0E94BD0C83E06FEF1A
:1036A0000E94300E83E061E040E00E94060D41C1BF
:1036B00083E06FEF0E94BD0C83E060E00E94300E5B
:1036C00083E060E041E00E94060D83E061E041E0BC
:1036D0000E94060D83E062E041E00E94060D29C1D0
:1036E00083E06FEF0E94BD0C83E06FEF0E94300E0D
:1036F00020C183E06FEF0E94BD0C83E06FEF0E945A
:10370000300E83E064E040E00E94060D12C1188E86
:1037100012C183E06FEF0E94BD0C83E067E041E0DF
:103720000E94060D8B81282F30E03D832C838C81F5
:103730009D818430910509F48EC02C813D81253016
:103740003105ECF48C819D818130910509F44AC0EA
:103750002C813D81223031052CF48C819D81009794
:1037600099F1E1C02C813D812230310509F44DC031
:103770008C819D818330910509F45AC0D4C02C817D
:103780003D812730310509F49FC08C819D818830AF
:1037900091056CF42C813D812530310509F473C00D
:1037A0008C819D818630910509F480C0BCC02C813C
:1037B0003D812830310509F49FC08C819D8189307D
:1037C000910509F4A2C0AFC083E06FEF0E94BD0C69
:1037D00083E060E00E94300E83E066E041E00E94FA
:1037E000060DA7C083E06FEF0E94BD0C83E06FEF72
:1037F0000E94300E83E061E040E00E94060D83E00D
:1038000062E040E00E94060D94C083E06FEF0E94EA
:10381000BD0C83E060E00E94300E83E062E041E096
:103820000E94060D83E065E041E00E94060D81C024
:1038300083E06FEF0E94BD0C83E060E00E94300ED9
:1038400083E064E041E00E94060D83E065E041E032
:103850000E94060D6EC083E06FEF0E94BD0C83E0F6
:1038600060E00E94300E83E060E041E00E94060DBF
:1038700083E063E041E00E94060D83E064E041E004
:103880000E94060D56C083E06FEF0E94BD0C83E0DE
:1038900060E00E94300E83E061E041E00E94060D8E
:1038A00083E064E041E00E94060D43C083E06FEFD7
:1038B0000E94BD0C83E060E00E94300E83E061E076
:1038C00041E00E94060D35C083E06FEF0E94BD0C01
:1038D00083E06FEF0E94300E83E060E040E00E94E2
:1038E000060D83E061E040E00E94060D83E062E0A7
:1038F00040E00E94060D1DC083E06FEF0E94BD0CEA
:1039000083E060E00E94300E14C083E06FEF0E94FD
:10391000BD0C83E060E00E94300E83E064E041E093
:103920000E94060D06C0188E06C0188E04C0188EA0
:1039300002C091E0988F888D6E960FB6F894DEBF26
:103940000FBECDBFCF91DF910895DF93CF93CDB759
:10395000DEB72E970FB6F894DEBF0FBECDBF82E064
:1039600061E00E94BD0C81E060E041E00E94930BA9
:1039700081E061E041E00E94930B81E062E041E080
:103980000E94930B80E090E0A0E2B2E48B879C87DA
:10399000AD87BE876B857C858D859E8520E030E078
:1039A0004AEF54E40E941F02DC01CB018F83988709
:1039B000A987BA876F81788589859A8520E030E06C
:1039C00040E85FE30E94250488232CF481E090E026
:1039D0009E838D833FC06F81788589859A8520E09D
:1039E0003FEF4FE757E40E94C50318164CF56B856F
:1039F0007C858D859E8520E030E040E251E40E9488
:103A00001F02DC01CB01BC01CD010E944900DC0199
:103A1000CB019E838D830FC088EC90E09C838B83C9
:103A20008B819C810197F1F79C838B838D819E8193
:103A300001979E838D838D819E81009769F714C0C5
:103A40006F81788589859A850E944900DC01CB01C8
:103A50009E838D838D819E819A83898389819A81BA
:103A60000197F1F79A83898388E30E94461D8FE0CE
:103A70000E94461D81E00E94461D2E960FB6F894C6
:103A8000DEBF0FBECDBFCF91DF910895DF93CF93FF
:103A9000CDB7DEB72F970FB6F894DEBF0FBECDBF00
:103AA0008F8781E060E040E00E94060D81E061E0E8
:103AB00040E00E94060D82E06F850E94300E81E09A
:103AC00062E041E00E94060D80E090E0A0E0B0E4FA
:103AD0008B879C87AD87BE876B857C858D859E8512
:103AE00020E030E04AEF54E40E941F02DC01CB01E9
:103AF0008F839887A987BA876F81788589859A850A
:103B000020E030E040E85FE30E94250488232CF4A5
:103B100081E090E09E838D833FC06F8178858985A9
:103B20009A8520E03FEF4FE757E40E94C50318163F
:103B30004CF56B857C858D859E8520E030E040E2EC
:103B400051E40E941F02DC01CB01BC01CD010E94A7
:103B50004900DC01CB019E838D830FC088EC90E08F
:103B60009C838B838B819C810197F1F79C838B8352
:103B70008D819E8101979E838D838D819E8100978B
:103B800069F714C06F81788589859A850E944900FC
:103B9000DC01CB019E838D838D819E819A838983F5
:103BA00089819A810197F1F79A83898381E062E0A4
:103BB00040E00E94060D2F960FB6F894DEBF0FBEB0
:103BC000CDBFCF91DF910895DF93CF93CDB7DEB70F
:103BD0002F970FB6F894DEBF0FBECDBF8F8781E061
:103BE00060E041E00E94060D81E061E040E00E945B
:103BF000060D82E06F850E94300E81E062E041E0B8
:103C00000E94060D80E090E0A0E0B0E48B879C87E6
:103C1000AD87BE876B857C858D859E8520E030E0F5
:103C20004AEF54E40E941F02DC01CB018F83988786
:103C3000A987BA876F81788589859A8520E030E0E9
:103C400040E85FE30E94250488232CF481E090E0A3
:103C50009E838D833FC06F81788589859A8520E01A
:103C60003FEF4FE757E40E94C50318164CF56B85EC
:103C70007C858D859E8520E030E040E251E40E9405
:103C80001F02DC01CB01BC01CD010E944900DC0117
:103C9000CB019E838D830FC088EC90E09C838B8347
:103CA0008B819C810197F1F79C838B838D819E8111
:103CB00001979E838D838D819E81009769F714C043
:103CC0006F81788589859A850E944900DC01CB0146
:103CD0009E838D838D819E819A83898389819A8138
:103CE0000197F1F79A83898381E062E040E00E94C6
:103CF000060D2F960FB6F894DEBF0FBECDBFCF9145
:103D0000DF910895DF93CF9300D0CDB7DEB79A83CC
:103D100089830BC0E981FA81208189819A8101968A
:103D20009A838983822F0E94E41DE981FA81808130
:103D3000882381F70F900F90CF91DF910895DF9343
:103D4000CF9300D000D0CDB7DEB78A836B838A8152
:103D5000882349F48B818983898180580E94461D7C
:103D600081E08C830EC08A81813051F48B81805C2C
:103D70008983898180580E94461D81E08C8301C01F
:103D80001C828C810F900F900F900F90CF91DF913C
:103D90000895DF93CF93CDB7DEB727970FB6F8948A
:103DA000DEBF0FBECDBF9C838B836D834E832F837D
:103DB0001A828D81882F90E0880F991F880F991F94
:103DC000880F991F8A838A81805C0E94461D198210
:103DD0000EC08981282F30E08B819C81FC01E20F8D
:103DE000F31F80810E94E41D89818F5F898389810F
:103DF000883078F38E816F810E949F1E8D810E9492
:103E0000E41D27960FB6F894DEBF0FBECDBFCF914D
:103E1000DF910895DF93CF93CDB7DEB761970FB6EB
:103E2000F894DEBF0FBECDBF6E877F87888B998BDE
:103E30001B828E859F85A889B9890097A105B10548
:103E400019F480E30E94E41D8E859F85A889B989B5
:103E5000BB230CF042C08DE20E94E41D8E859F853D
:103E6000A889B989B095A095909581959F4FAF4F3E
:103E7000BF4F8E879F87A88BB98B2FC08E859F855C
:103E8000A889B9892AE030E040E050E0BC01CD01CA
:103E90000E94F021DC01CB01805D89838B81282F7A
:103EA00030E0CE010496FC01E20FF31F898180838C
:103EB0008E859F85A889B9892AE030E040E050E0EE
:103EC000BC01CD010E94F021DA01C9018E879F87D4
:103ED000A88BB98B8B818F5F8B838E859F85A889FB
:103EE000B989181619061A061B0644F28B818A83B3
:103EF00011C08A81882F90E09C0121503040CE0172
:103F00000496FC01E20FF31F80810E94E41D8A8168
:103F100081508A838A81882361F761960FB6F8946D
:103F2000DEBF0FBECDBFCF91DF910895DF93CF935A
:103F3000CDB7DEB729970FB6F894DEBF0FBECDBF61
:103F40006E837F83888799876E817F818885998535
:103F50000E94B304DC01CB018A839B83AC83BD83C5
:103F60006A817B818C819D810E9455049B01AC01FB
:103F70006E817F81888599850E94C101DC01CB011A
:103F8000BC01CD0120E030E048EC52E40E941F0269
:103F9000DC01CB01BC01CD010E944900DC01CB0159
:103FA00089838A819B81AC81BD81BC01CD010E9446
:103FB0000A1F8EE20E94E41D8981882F90E0A0E014
:103FC000B0E0BC01CD010E940A1F29960FB6F894FB
:103FD000DEBF0FBECDBFCF91DF910895EF92FF926C
:103FE0000F931F93DF93CF93CDB7DEB728970FB60C
:103FF000F894DEBF0FBECDBF6D837E838F8398871D
:1040000081E090E0A0E0B0E089839A83AB83BC8339
:1040100036C089819A81AB81BC812AE030E040E0E2
:1040200050E0BC01CD010E94AF217B018C018D814C
:104030009E81AF81B8852AE030E040E050E0BC01CD
:10404000CD010E94CE21DC01CB018E0D9F1DA01F52
:10405000B11F89839A83AB83BC838D819E81AF819D
:10406000B8852AE030E040E050E0BC01CD010E947C
:10407000CE21DA01C9018D839E83AF83B8878D81FC
:104080009E81AF81B8850097A105B10511F68981A0
:104090009A81AB81BC812AE030E040E050E0BC0175
:1040A000CD010E94CE21DC01CB01805D0E94E41D88
:1040B00089819A81AB81BC812AE030E040E050E008
:1040C000BC01CD010E94CE21DA01C90189839A8306
:1040D000AB83BC8389819A81AB81BC81813091059E
:1040E000A105B105A1F628960FB6F894DEBF0FBE64
:1040F000CDBFCF91DF911F910F91FF90EF90089569
:10410000DF93CF9300D000D00F92CDB7DEB78FEF03
:1041100089831B827AC081E06FEF0E94BD0C8B8186
:10412000882F90E0FC01E258FE4F908181E0692FDA
:1041300040E00E94060D1A8255C08A81882F90E0C7
:10414000FC01EE57FE4F908181E0692F40E00E9414
:10415000930B8A81882F90E0FC01EE57FE4F9081EF
:1041600081E0692F40E00E94950F8A81882F90E0BE
:10417000FC01EE57FE4F90819E012C5F3F4F81E086
:10418000692FA9010E94790E8C81882341F58A81CB
:10419000482F50E08B81282F30E0CA01880F991FEB
:1041A000880F991F820F931FFC01EA57FE4F8081F1
:1041B00089830FC08A81882F90E0FC01EE57FE4F63
:1041C00090819E012C5F3F4F81E0692FA9010E94E1
:1041D000790E8C81882371F389818D831CC08A813B
:1041E0008F5F8A838A81843008F4A7CF8B81882FE0
:1041F00090E0FC01E258FE4F908181E0692F41E0A0
:104200000E94060D8B818F5F8B838B81843008F435
:1042100082CF89818D838D810F900F900F900F90A9
:104220000F90CF91DF910895DF93CF93CDB7DEB795
:104230008091AA018F5F8093AA018091AA018130A9
:1042400029F480E090E00E9460082FC08091AA01CC
:10425000823081F48BEA91E00E9484088091AB0166
:104260009091AC019093A7018093A60180E00E94F9
:10427000A30A1BC08091AA018330A9F48DEA91E0C2
:104280000E9484082091AD013091AE018091A60179
:104290009091A701A901481B590BCA019093A9014C
:1042A0008093A80102C01092AA01CF91DF910895D6
:1042B000DF93CF93CDB7DEB781E063E041E00E94AA
:1042C000930B83E062E040E00E94930B0E94A51CE8
:1042D00084E191E20E94E30A80E00E94710A81E099
:1042E0000E94A30A0E94210880E40E94AD070E9458
:1042F000750780E00E94B4098091A6019091A70102
:10430000009731F48091A8019091A9010097A1F341
:1043100080E060E00E949F1E80E690E00E94821E86
:104320008091A6019091A701CC01A0E0B0E0BC0172
:10433000CD010E940A1F81E060E00E949F1E8DE671
:1043400090E00E94821E8091A8019091A901CC0169
:10435000A0E0B0E0BC01CD010E940A1FCDCF629F5A
:10436000D001739FF001829FE00DF11D649FE00D6D
:10437000F11D929FF00D839FF00D749FF00D659FCE
:10438000F00D9927729FB00DE11DF91F639FB00DCD
:10439000E11DF91FBD01CF0111240895A1E21A2EDC
:1043A000AA1BBB1BFD010DC0AA1FBB1FEE1FFF1FD9
:1043B000A217B307E407F50720F0A21BB30BE40B29
:1043C000F50B661F771F881F991F1A9469F7609570
:1043D0007095809590959B01AC01BD01CF0108952A
:1043E00097FB092E05260ED057FD04D0D7DF0AD043
:1043F000001C38F450954095309521953F4F4F4F14
:104400005F4F0895F6F790958095709561957F4F71
:104410008F4F9F4F08952F923F924F925F926F92CE
:104420007F928F929F92AF92BF92CF92DF92EF9244
:10443000FF920F931F93CF93DF93CDB7DEB7CA1BC5
:10444000DB0B0FB6F894DEBF0FBECDBF09942A88F0
:10445000398848885F846E847D848C849B84AA8498
:10446000B984C884DF80EE80FD800C811B81AA8125
:10447000B981CE0FD11D0FB6F894DEBF0FBECDBFF0
:08448000ED010895F894FFCF4F
:10448800506572696F645469636B733D004F6E5475
:1044980069636B733D00000000000000000000012C
:1044A80002020303030304040404040404040505CA
:1044B80005050505050505050505050505050606A2
:1044C8000606060606060606060606060606060684
:1044D8000606060606060606060606060606070772
:1044E8000707070707070707070707070707070754
:1044F8000707070707070707070707070707070744
:104508000707070707070707070707070707070733
:104518000707070707070707070707070707080821
:104528000808080808080808080808080808080803
:1045380008080808080808080808080808080808F3
:1045480008080808080808080808080808080808E3
:1045580008080808080808080808080808080808D3
:1045680008080808080808080808080808080808C3
:1045780008080808080808080808080808080808B3
:1045880008080808080808080808080808080808A3
:1045980008080808080808080808080808080001A2
:1045A8000203040506070102030405060708090AB1
:0645B8000B0C0D0E0F10AC
:00000001FF
